:020000040800F2
:1000000000000120791D0008891B0008971B0008CB
:100010009D1B0008A31B0008A91B0008000000008E
:10002000000000000000000000000000AF1B0008FE
:10003000BD1B000800000000CB1B0008D91B0008F6
:10004000C91D0008C91D0008C91D0008C91D0008F8
:10005000C91D0008C91D0008C91D0008C91D0008E8
:10006000C91D0008C91D0008C91D0008C91D0008D8
:10007000C91D0008C91D0008C91D0008C91D0008C8
:10008000C91D0008C91D0008C91D000800000000A6
:10009000000000000000000000000000C91D000872
:1000A000C91D0008C91D0008C91D0008C91D000898
:1000B000C91D0008C91D0008C91D0008C91D000888
:1000C000C91D0008C91D0008C91D0008E51B00085E
:1000D000C91D0008C91D0008C91D00080000000056
:1000E000C91D0008C91D0008C91D00080000000046
:1000F000000000000000000000000000C91D000812
:1001000000000000C91D0008C91D0008C91D000825
:1001100000000000000000000000000000000000DF
:10012000C91D0008C91D0008C91D0008C91D000817
:10013000C91D0008000000000000000000000000D1
:10014000000000000000000000000000C91D0008C1
:10015000C91D0008C91D0008F91B0008C91D0008B9
:10016000C91D0008C91D00080000000000000000B3
:10017000000000000000000000000000000000007F
:1001800000000000C91D0008000000000000000081
:04019000C91D00087D
:1001A00010B5054C237833B9044B13B10448AFF3B1
:1001B00000800123237010BD6C01002000000000AE
:1001C000F4E4000808B5034B1BB103490348AFF33F
:1001D000008008BD0000000070010020F4E4000869
:1001E0006FF0030C043904E04FF0040C01EB8201C2
:1001F0005242920000D170472DE9F047C3EA03460E
:10020000C3EA2347B0F800A044888388C5880089E2
:10021000C5F57045C3EA004E6346C4EA054C34B2E6
:100220003DB24FEA04384FEA053934003D008858A2
:100230001AFB00881AFB10992CFB04882CFB1599DB
:100240004EFB06884EFB179926002F00C0EA0814C3
:10025000C0EA29352804C0EA24408850D218E6D1E3
:10026000BDE8F0876FF0010C023904E05FF0020C8A
:1002700001EB42015242520000D170472DE9F04497
:100280006746B0F800A044888588C6880089C6F50E
:100290007046C4EA064CC5EA004EC3EA0344250092
:1002A0001BB21E03885A1AFB00662CFB04664EFB29
:1002B00005662500C0EA061420148852D219F1D12F
:1002C000BDE8F084034613F8012B002AFBD1181A6D
:1002D000013870470000000000000000000000002E
:1002E00001F0FF01102A2BDB10F0070F08D010F8E7
:1002F000013B013A8B422DD010F0070F42B3F6D1EB
:10030000F0B441EA012141EA014122F007047FF003
:1003100000070023F0E80256083C85EA010586EA5A
:10032000010685FA47F5A3FA87F586FA47F6A5FA96
:1003300087F68EB9EED1F0BC01F0FF0102F00702A2
:1003400032B110F8013B013A83EA010313B1F8D14D
:100350000020704701387047002D06BF354603382E
:10036000073815F0010F07D1013015F4807F02BF67
:10037000013015F4C03F0130F0BC0138704700BFB8
:1003800081F0004102E000BF83F0004330B54FEA46
:1003900041044FEA430594EA050F08BF90EA020FB3
:1003A0001FBF54EA000C55EA020C7FEA645C7FEA46
:1003B000655C00F0E2804FEA5454D4EB5555B8BF69
:1003C0006D420CDD2C4480EA020281EA030382EADA
:1003D000000083EA010180EA020281EA0303362D6C
:1003E00088BF30BD11F0004F4FEA01314FF4801C3F
:1003F0004CEA113102D0404261EB410113F0004F51
:100400004FEA03334CEA133302D0524263EB430307
:1004100094EA050F00F0A780A4F10104D5F1200EA5
:100420000DDB02FA0EFC22FA05F2801841F1000100
:1004300003FA0EF2801843FA05F359410EE0A5F1D4
:1004400020050EF1200E012A03FA0EFC28BF4CF005
:10045000020C43FA05F3C01851EBE37101F00045BB
:1004600007D54FF0000EDCF1000C7EEB00006EEBC8
:100470000101B1F5801F1BD3B1F5001F0CD3490852
:100480005FEA30004FEA3C0C04F101044FEA4452A9
:1004900012F5800F80F09A80BCF1004F08BF5FEA30
:1004A000500C50F1000041EB045141EA050130BD10
:1004B0005FEA4C0C404141EB010111F4801FA4F1B3
:1004C0000104E9D191F0000F04BF01460020B1FA08
:1004D00081F308BF2033A3F10B03B3F120020CDA40
:1004E0000C3208DD02F1140CC2F10C0201FA0CF01E
:1004F00021FA02F10CE002F11402D8BFC2F1200C83
:1005000001FA02F120FA0CFCDCBF41EA0C01904038
:10051000E41AA2BF01EB0451294330BD6FEA040481
:100520001F3C1CDA0C340EDC04F11404C4F120026C
:1005300020FA04F001FA02F340EA030021FA04F37E
:1005400045EA030130BDC4F10C04C4F1200220FAD5
:1005500002F001FA04F340EA0300294630BD21FA13
:1005600004F0294630BD94F0000F83F4801306BFD9
:1005700081F480110134013D4EE77FEA645C18BFCD
:100580007FEA655C29D094EA050F08BF90EA020F64
:1005900005D054EA000C04BF1946104630BD91EA5C
:1005A000030F1EBF0021002030BD5FEA545C05D15F
:1005B0004000494128BF41F0004130BD14F580049E
:1005C0003CBF01F5801130BD01F0004545F0FE4112
:1005D00041F470014FF0000030BD7FEA645C1ABF47
:1005E000194610467FEA655C1CBF0B46024650EA7E
:1005F000013406BF52EA033591EA030F41F40021AA
:1006000030BD00BF90F0000F04BF0021704730B52F
:100610004FF4806404F132044FF000054FF0000104
:1006200050E700BF90F0000F04BF0021704730B5C5
:100630004FF4806404F1320410F0004548BF40429A
:100640004FF000013EE700BF42004FEAE2014FEAEF
:1006500031014FEA02701FBF12F07F4393F07F4FCA
:1006600081F06051704732F07F4208BF704793F0CD
:100670007F4F04BF41F40021704730B54FF46074E0
:1006800001F0004521F000411CE700BF50EA0102E3
:1006900008BF704730B54FF000050AE050EA01028C
:1006A00008BF704730B511F0004502D5404261EBFC
:1006B00041014FF4806404F132045FEA915C3FF43D
:1006C000D8AE4FF003025FEADC0C18BF03325FEADA
:1006D000DC0C18BF033202EBDC02C2F1200300FA8B
:1006E00003FC20FA02F001FA03FE40EA0E0021FAB0
:1006F00002F11444BDE600BF70B54FF0FF0C4CF49E
:10070000E06C1CEA11541DBF1CEA135594EA0C0F4F
:1007100095EA0C0F00F0DEF82C4481EA030621EA8A
:100720004C5123EA4C5350EA013518BF52EA0335C5
:1007300041F4801143F4801338D0A0FB02CE4FF077
:100740000005E1FB02E506F00042E0FB03E54FF0A7
:100750000006E1FB03569CF0000F18BF4EF0010E9F
:10076000A4F1FF04B6F5007F64F5407404D25FEA9B
:100770004E0E6D4146EB060642EAC62141EA55514E
:100780004FEAC52040EA5E504FEACE2EB4F1FD0C90
:1007900088BFBCF5E06F1ED8BEF1004F08BF5FEA0E
:1007A000500E50F1000041EB045170BD06F00046C0
:1007B00046EA010140EA020081EA0301B4EB5C046D
:1007C000C2BFD4EB0C0541EA045170BD41F4801165
:1007D0004FF0000E013C00F3AB8014F1360FDEBF8A
:1007E000002001F0004170BDC4F10004203C35DA66
:1007F0000C341BDC04F11404C4F1200500FA05F3E9
:1008000020FA04F001FA05F240EA020001F0004289
:1008100021F0004110EBD37021FA04F642EB0601FF
:100820005EEA430E08BF20EAD37070BDC4F10C0429
:10083000C4F1200500FA04F320FA05F001FA04F2ED
:1008400040EA020001F0004110EBD37041F10001D9
:100850005EEA430E08BF20EAD37070BDC4F12005E4
:1008600000FA05F24EEA020E20FA04F301FA05F24C
:1008700043EA020321FA04F001F0004121FA04F2F4
:1008800020EA020000EBD3705EEA430E08BF20EAC4
:10089000D37070BD94F0000F0FD101F000464000FE
:1008A00041EB010111F4801F08BF013CF7D041EA80
:1008B000060195F0000F18BF704703F00046520084
:1008C00043EB030313F4801F08BF013DF7D043EA55
:1008D0000603704794EA0C0F0CEA135518BF95EA0B
:1008E0000C0F0CD050EA410618BF52EA4306D1D192
:1008F00081EA030101F000414FF0000070BD50EAB1
:10090000410606BF1046194652EA430619D094EA3A
:100910000C0F02D150EA013613D195EA0C0F05D124
:1009200052EA03361CBF104619460AD181EA030178
:1009300001F0004141F0FE4141F470014FF0000030
:1009400070BD41F0FE4141F4780170BD70B54FF0CB
:10095000FF0C4CF4E06C1CEA11541DBF1CEA13554B
:1009600094EA0C0F95EA0C0F00F0A7F8A4EB05042D
:1009700081EA030E52EA03354FEA013100F0888024
:100980004FEA03334FF0805545EA131343EA1263ED
:100990004FEA022245EA111545EA10654FEA0026A2
:1009A0000EF000419D4208BF964244F1FD0404F55B
:1009B000407402D25B084FEA3202B61A65EB0305B7
:1009C0005B084FEA32024FF480104FF4002CB6EB74
:1009D000020E75EB030E22BFB61A754640EA0C00F4
:1009E0005B084FEA3202B6EB020E75EB030E22BF34
:1009F000B61A754640EA5C005B084FEA3202B6EB75
:100A0000020E75EB030E22BFB61A754640EA9C0033
:100A10005B084FEA3202B6EB020E75EB030E22BF03
:100A2000B61A754640EADC0055EA060E18D04FEAC1
:100A3000051545EA16754FEA06164FEAC30343EA61
:100A400052734FEAC2025FEA1C1CC0D111F4801F2E
:100A50000BD141EA00014FF000004FF0004CB6E727
:100A600011F4801F04BF01430020B4F1FD0C88BFC6
:100A7000BCF5E06F3FF6AFAEB5EB030C04BFB6EBD1
:100A8000020C5FEA500C50F1000041EB045170BDC4
:100A90000EF0004E4EEA113114EB5C04C2BFD4EBF1
:100AA0000C0541EA045170BD41F480114FF0000E75
:100AB000013C90E645EA060E8DE60CEA135594EAF1
:100AC0000C0F08BF95EA0C0F3FF43BAF94EA0C0FF4
:100AD0000AD150EA01347FF434AF95EA0C0F7FF469
:100AE00025AF104619462CE795EA0C0F06D152EABD
:100AF00003353FF4FDAE1046194622E750EA4106A1
:100B000018BF52EA43067FF4C5AE50EA41047FF4B1
:100B10000DAF52EA43057FF4EBAE12E74FEA410214
:100B2000B2F1E04324BFB3F5001CDCF1FE5C0DD94B
:100B300001F0004C4FEAC0024CEA5070B2F1004F95
:100B400040EB830008BF20F00100704711F0804F98
:100B500021D113F13872BCBF01F00040704741F45D
:100B600080114FEA5252C2F11802C2F1200C10FA61
:100B70000CF320FA02F018BF40F001004FEAC12345
:100B80004FEAD32303FA0CFC40EA0C0023FA02F3E9
:100B90004FEA4303CCE77FEA625307D150EA0133BF
:100BA0001EBF4FF0FE4040F44000704701F000408F
:100BB00040F0FE4040F40000704700BF53B94AB90E
:100BC000002908BF00281CBF4FF0FF314FF0FF3055
:100BD00000F072B9ADF1080C6DE904CE00F006F832
:100BE000DDF804E0DDE9022304B070472DE9F047A9
:100BF000089E04468846002B4BD18A42154667D989
:100C0000B2FA82F24AB1C2F1200701FA02F320FAE5
:100C100007F7954047EA030894404FEA154E230C26
:100C2000B8FBFEF71FFA85FC0EFB178843EA084362
:100C300007FB0CF1994209D9EB1807F1FF3080F05E
:100C40001B81994240F21881023F2B445B1AA4B2E7
:100C5000B3FBFEF00EFB103344EA034400FB0CFC34
:100C6000A44509D92C1900F1FF3380F00781A44570
:100C700040F2048102382C4440EA0740A4EB0C0403
:100C800000271EB1D4400023C6E900433946BDE821
:100C9000F0878B4209D9002E00F0EB800027C6E9CF
:100CA000000138463946BDE8F087B3FA83F7002FD4
:100CB00047D18B4202D3824200F2FA80841A61EB60
:100CC000030301209846002EE0D0C6E90048DDE786
:100CD00002B9FFDEB2FA82F2002A40F08F80491B8F
:100CE0004FEA154E1FFA85F80127B1FBFEFC230CD5
:100CF0000EFB1C1143EA014308FB0CF1994207D992
:100D0000EB180CF1FF3002D2994200F2CD808446FC
:100D1000591AA3B2B1FBFEF00EFB101443EA0444CF
:100D200008FB00F8A04507D92C1900F1FF3302D2C7
:100D3000A04500F2B6801846A4EB080440EA0C4037
:100D40009FE7C7F1200CBB4022FA0CFE4EEA030ECF
:100D500001FA07F420FA0CF521FA0CF34FEA1E48C9
:100D60002543B3FBF8F92C0C08FB19331FFA8EFA54
:100D700044EA034309FB0AF49C4202FA07F200FA30
:100D800007F10BD91EEB030309F1FF3080F08780D8
:100D90009C4240F28480A9F1020973441B1BADB24E
:100DA000B3FBF8F008FB103345EA034400FB0AFAF2
:100DB000A24508D91EEB040400F1FF336BD2A24513
:100DC00069D90238744440EA0940A0FB0289A4EBC7
:100DD0000A044C45C2464B4654D351D0002E69D02C
:100DE000B1EB0A0564EB030404FA0CFCFD40FC4083
:100DF0004CEA0505C6E90054002747E7C2F1200385
:100E000020FA03F7954001FA02F021FA03F34FEAC2
:100E1000154E3843010CB3FBFEF71FFA85F80EFBA5
:100E2000173341EA034107FB08F38B4204FA02F44B
:100E300007D9691807F1FF3C2FD28B422DD9023F09
:100E40002944CB1A81B2B3FBFEF00EFB103341EA0A
:100E5000034100FB08F38B4207D9691800F1FF3CFE
:100E600017D28B4215D902382944C91A40EA0747DC
:100E70003BE73746304609E70746E7E61846FBE614
:100E80004145ABD2B8EB020A69EB0E0201381346BA
:100E9000A4E76046E9E7184695E76746D1E781464B
:100EA0007CE702382C4447E7ACF1020C2B442FE7D7
:100EB000384608E73746E9E6704700BF80B584B09A
:100EC00000AF78607B68094AA2FB03239B09FB60A3
:100ED000FB68002B01D0FB6800E00123184600F0FE
:100EE000E1FF00BF1037BD4680BD00BFD34D62108B
:100EF00080B588B002AFF860B9607A6041F288339B
:100F00007B61002210210B4801F0A4FD7B689AB29E
:100F10007B6900931346BA68B968074802F06EFA15
:100F200001221021034801F095FD00BF1837BD468E
:100F300080BD00BF00000240900A002080B582B052
:100F400000AF78600D4B1B78022B12D001224FF4BA
:100F500080510B4801F07EFD01221021094801F06B
:100F600079FD4FF4FA60FFF7A9FF044B02221A70D3
:100F700000E000BF0837BD4680BD00BF88010020EB
:100F8000000402400000024080B582B000AF7860EB
:100F90000D4B1B78022B12D1002210210B4801F0BF
:100FA00059FD00224FF48051094801F053FD064BD2
:100FB00000221A704FF4FA60FFF780FF00E000BFD4
:100FC0000837BD4680BD00BF8801002000000240F8
:100FD0000004024080B584B000AF7860396000F052
:100FE00055FFF8600DE03B68002B07D000F04EFF86
:100FF0000246FB68D31A3A689A4201D2002309E0FC
:1010000030BF4FF48061054801F00CFD0346012B11
:10101000E9D1012318461037BD4680BD00040240C7
:1010200080B400AF044B07EE903AB0EE670ABD46BD
:101030005DF8047B704700BF001BB74B80B500AF65
:1010400000F024FF0346184680BD000080B592B032
:1010500006AFF860B9607A60FFF7F0FFF862FB6AEC
:10106000BB62BB6A254AA2FB03235B0D7B62BB6AA2
:10107000234AA2FB03239A0B224BA3FB0213590919
:101080000B461B015B1A9B00D31A3B62BB6A1E4ACC
:10109000A2FB03239A091B4BA3FB021359090B461E
:1010A0001B015B1A9B00D31AFB61BB6A164AA2FBA9
:1010B000031292094FF47A7101FB02F29B1ABB6191
:1010C000FB68042B04D8114AFB6813441B7800E02A
:1010D0003F23FB75FB7D7A680492BA680392029302
:1010E00000230193BB690093FB693A6A796A084857
:1010F0000BF0DEFB00BF3037BD4680BDB17C2195D3
:1011000073B2E74589888888D34D621038E50008B6
:101110000CE50008B0B48FB000AF78600E4B07F15B
:1011200008041D460FCD0FC40FCD0FC495E80F0066
:1011300084E80F007B681D4607F108040FCC0FC53B
:101140000FCC0FC594E80F0085E80F0078683C3796
:10115000BD46B0BC704700BF40E5000880B590B008
:1011600000AF3B1D1846FFF7D5FF3B1D184603F0A7
:10117000C5FD034683F00103DBB2002B01D0002341
:101180003CE004F065F803463B603B68002B03D16C
:1011900003F0EAFD002331E03B680A21184604F021
:1011A000E7F83B68184603F0FBFDF863154BBB639B
:1011B0004FF07C537B6397ED0E0AF86B05F0D8F97E
:1011C00097ED0D0AF86B05F0F5F93B68184600F04D
:1011D0001BF8034683F00103DBB2002B07D03B462C
:1011E000184604F0B5F803F0BFFD002306E03B46C7
:1011F000184604F0ADF803F0B7FD01231846403758
:10120000BD4680BDCDCC4C3EB0B590B000AF78604F
:101210006B461D46786803F089FF03463B623B6AD4
:10122000002B01D1002384E03B6A07F11002114634
:10123000184604F0A9F8388B0346013B3B6381B2A2
:101240004FF000024FF000034FF00004140144EA95
:1012500011740B0181B24FF000024FF000034FF008
:101260000004140144EA11740B0103465B000133CE
:101270000733DB08DB00ADEB030D6B4601335B0886
:101280005B00FB623B6A184603F09AFD034683F05D
:101290000103DBB2002B06D007F12003184603F050
:1012A0005FFF002345E0012387F837300523BB6249
:1012B0000023BB631DE0386AF96A3A8B07F10C031F
:1012C00004F06EF8034687F8373097F8373083F02C
:1012D0000103DBB2002B11D10023FB8702E0FB8F5F
:1012E0000133FB873B8BFA8F9A42F8D3BB6B0133F8
:1012F000BB63BA6BBB6A9A42DDDB00E000BF3B6AAE
:10130000184603F08DFD034687F8273007F12003C8
:10131000184603F025FF97F82730002B05D097F8E3
:101320003730002B01D0012300E0002303F001033C
:10133000DBB2AD4618464037BD46B0BD80B483B081
:1013400000AF78604FF06043D3F8803E03F00103B4
:10135000002B13D04FF06043D3F8003E03F001039D
:10136000002B0BD000E000BF4FF060431B68002B48
:10137000F9D04FF060437A68D2B21A707B68184691
:101380000C37BD465DF8047B704780B586B000AF72
:10139000F860B9607A6000237B6100237B6109E01B
:1013A000BB685A1CBA601B781846FFF7C7FF7B69F9
:1013B00001337B617A697B689A42F1DB7B6818466E
:1013C0001837BD4680BD000080B500AF00F0FEFCC0
:1013D00000F042F800F0B8F900F0AAF800F0DEF8EA
:1013E00000F092F900F066F90421174802F0D2FBF0
:1013F0000821154802F0CEFB0C21134802F0CAFB6D
:10140000124B4FF4FA729A63104B40F2EE22DA63F9
:101410000E4B40F2DC521A6400F022FA0346002B15
:1014200001D0FFF79BFE0A4B1B685A1C08490A6053
:10143000642BF1DD064B00221A604FF480710548E1
:1014400001F021FBE8E700BFB009002000080040E0
:101450008C0100200000024080B594B000AF07F17D
:1014600020033022002118460AF0AAFE07F10C03DF
:1014700000221A605A609A60DA601A610023BB6029
:10148000294B1B6C284A43F080531364264B1B6C7A
:1014900003F08053BB60BB6800237B60234B1B6859
:1014A00023F44043214A43F4004313601F4B1B685D
:1014B00003F440437B607B6801233B624FF480333D
:1014C0007B620223BB634FF48003FB630C233B640A
:1014D00050237B640423BB640423FB6407F12003D3
:1014E000184601F0EBFA0346002B01D000F0F6F9A4
:1014F0000F23FB6002233B6100237B614FF4805389
:10150000BB614FF48053FB6107F10C0302211846C5
:1015100001F044FD0346002B01D000F0DFF900BFCD
:101520005037BD4680BD00BF00380240007000400B
:1015300080B500AF174B184A1A60164B4FF48272F1
:101540005A60144B00229A60124B0022DA60114B51
:1015500000221A610F4B00225A610E4B4FF40072A9
:101560009A610C4B1022DA610A4B00221A62094B75
:1015700000225A62074B00229A62064B0A22DA6264
:10158000044801F0D7FE0346002B01D000F0A6F975
:1015900000BF80BD900A00200030014080B58EB0B1
:1015A00000AF07F1280300221A605A609A60DA60DF
:1015B00007F1200300221A605A603B1D00221A60C6
:1015C0005A609A60DA601A615A619A61374B384AF8
:1015D0001A60364B00225A60344B00229A60334B1B
:1015E0004FF48052DA60314B00221A612F4B0022F7
:1015F0009A612E4802F06EFA0346002B01D000F0EB
:101600006DF94FF48053BB6207F128031946274850
:1016100002F0B8FB0346002B01D000F05FF923482D
:1016200002F083FA0346002B01D000F057F90023A3
:101630003B6200237B6207F1200319461B4802F03E
:1016400025FF0346002B01D000F048F960237B60A2
:101650000023BB600023FB6000237B613B1D042251
:101660001946124802F0C8FA0346002B01D000F0D8
:1016700035F93B1D082219460C4802F0BDFA034615
:10168000002B01D000F02AF93B1D0C221946074817
:1016900002F0B2FA0346002B01D000F01FF9034814
:1016A00000F0BEF900BF3837BD4680BDB00900204C
:1016B0000008004080B500AF114B124A1A60104B71
:1016C0004FF4E1325A600E4B00229A600C4B00221C
:1016D000DA600B4B00221A61094B0C225A61084B4D
:1016E00000229A61064B0022DA61054802F03CFFB5
:1016F0000346002B01D000F0F1F800BF80BD00BF11
:10170000500A00200010014080B582B000AF0023D5
:101710007B600C4B1B6B0B4A43F480031363094B38
:101720001B6B03F480037B607B6800220021462052
:1017300000F0B5FC462000F0CEFC00BF0837BD46E7
:1017400080BD00BF0038024080B588B000AF07F10F
:101750000C0300221A605A609A60DA601A61002352
:10176000BB603B4B1B6B3A4A43F080031363384B1F
:101770001B6B03F08003BB60BB6800237B60344BB2
:101780001B6B334A43F001031363314B1B6B03F0B4
:1017900001037B607B6800233B602D4B1B6B2C4A55
:1017A00043F0020313632A4B1B6B03F002033B60FD
:1017B0003B6801221021274801F04CF900224FF428
:1017C0008051254801F046F900224FF480712148EC
:1017D00001F040F91023FB6001233B6101237B6191
:1017E0000023BB6107F10C0319461A4800F098FF6B
:1017F0004FF48063FB60194B3B6100237B6107F171
:101800000C031946144800F08BFF4FF48053FB6023
:1018100001233B6100237B610023BB6107F10C03C3
:1018200019460D4800F07CFF4FF48073FB600123E4
:101830003B6100237B610023BB6107F10C03194668
:10184000044800F06DFF00BF2037BD4680BD00BFDB
:101850000038024000000240000402400000111065
:1018600080B590B000AF0123FB63302387F834309C
:10187000002387F83530002387F83630002387F8B7
:101880003730002387F83830002387F839303B1D84
:101890001846FFF73FFCBB69F86B98477B6A07F176
:1018A00034010622F86B9847FB69F86B984797F864
:1018B0003630002B0DD197F83730002B09D197F82F
:1018C0003830112B05D197F83930122B01D1012373
:1018D00000E0002318464037BD4680BD80B400AF0D
:1018E00000BFBD465DF8047B7047000080B483B044
:1018F00000AF00237B60104B5B6C0F4A43F48043C6
:1019000053640D4B5B6C03F480437B607B68002366
:101910003B60094B1B6C084A43F080531364064B31
:101920001B6C03F080533B603B6800BF0C37BD4627
:101930005DF8047B704700BF0038024080B58AB074
:1019400000AF786007F1140300221A605A609A60B1
:10195000DA601A617B681B681D4A934233D1002309
:101960003B611C4B5B6C1B4A43F480535364194B23
:101970005B6C03F480533B613B690023FB60154BB8
:101980001B6B144A43F001031363124B1B6B03F0F0
:101990000103FB60FB68E0237B610223BB61002342
:1019A000FB6103233B6205237B6207F114031946A5
:1019B000094800F0B5FE00220021232000F06FFB53
:1019C000232000F088FB00BF2837BD4680BD00BF44
:1019D00000300140003802400000024080B485B071
:1019E00000AF78607B681B680B4A93420DD10023DF
:1019F000FB600A4B1B6C094A43F004031364074B5A
:101A00001B6C03F00403FB60FB6800BF1437BD468A
:101A10005DF8047B704700BF0008004000380240BA
:101A200080B588B000AF786007F10C0300221A601F
:101A30005A609A60DA601A617B681B68124A9342A6
:101A40001ED10023BB60114B1B6B104A43F00203F5
:101A500013630E4B1B6B03F00203BB60BB684FF4B8
:101A60006073FB6002233B6100237B610023BB6149
:101A70000223FB6107F10C031946054800F050FEF4
:101A800000BF2037BD4680BD00080040003802403E
:101A90000004024080B58AB000AF786007F11403FB
:101AA00000221A605A609A60DA601A617B681B68CB
:101AB000304A93425AD100233B612F4B5B6C2E4A34
:101AC00043F0100353642C4B5B6C03F010033B6139
:101AD0003B690023FB60284B1B6B274A43F0010343
:101AE0001363254B1B6B03F00103FB60FB684FF492
:101AF000C0637B610223BB610123FB6103233B6263
:101B000007237B6207F1140319461C4800F008FE06
:101B10001B4B1C4A1A601A4B4FF000625A60184B5C
:101B200040229A60164B0022DA60154B4FF4806217
:101B30001A61134B00225A61114B00229A61104B1B
:101B40000022DA610E4B00221A620D4B00225A620B
:101B50000B4800F0DBFA0346002B01D0FFF7BEFE76
:101B60007B68074A1A63064A7B68936300BF28377D
:101B7000BD4680BD00100140003802400000024018
:101B8000F0090020B864024080B400AF00BFBD4639
:101B90005DF8047B704780B400AFFEE780B400AF0F
:101BA000FEE780B400AFFEE780B400AFFEE780B48C
:101BB00000AF00BFBD465DF8047B704780B400AF46
:101BC00000BFBD465DF8047B704780B400AF00BF26
:101BD000BD465DF8047B704780B500AF00F042F968
:101BE00000BF80BD80B500AF024801F0A9FD00BF75
:101BF00080BD00BF900A002080B500AF024800F011
:101C000055FB00BF80BD00BFF009002080B400AFCD
:101C100001231846BD465DF8047B704780B582B04D
:101C200000AF786039600AF05BFA02461623136051
:101C30004FF0FF3318460837BD4680BD80B582B0EF
:101C400000AF78604FF0FF317868FFF7E7FFFEE7FD
:101C500080B586B000AFF860B9607A6000237B6120
:101C60000AE0AFF300800146BB685A1CBA60CAB2F2
:101C70001A707B6901337B617A697B689A42F0DB79
:101C80007B6818461837BD4680BD80B483B000AF6E
:101C900078604FF0FF3318460C37BD465DF8047B83
:101CA000704780B483B000AF786039603B684FF410
:101CB00000525A60002318460C37BD465DF8047B7D
:101CC000704780B483B000AF7860012318460C37AA
:101CD000BD465DF8047B704780B485B000AFF86006
:101CE000B9607A60002318461437BD465DF8047B5E
:101CF0007047000080B584B000AF7860114B1B685E
:101D0000002B02D10F4B104A1A600E4B1B68FB6070
:101D10000C4B1A687B6813446A46934207D90AF051
:101D2000DFF902460C2313604FF0FF3306E0054B4A
:101D30001A687B681344034A1360FB68184610371F
:101D4000BD4680BD90010020F00A002080B400AFA5
:101D5000084BD3F88830074A43F47003C2F8883040
:101D6000044B4FF000629A6000BFBD465DF8047BF3
:101D7000704700BF00ED00E0DFF834D0002103E041
:101D80000C4B5B58435004310B480C4B42189A42A1
:101D9000F6D30B4A02E0002342F8043B094B9A4277
:101DA000F9D3FFF7D3FF0AF0B3F9FFF70DFB704744
:101DB0000000012080860108000000206C01002046
:101DC0006C010020F00A0020FEE7000080B500AFA3
:101DD0000B4B1B680A4A43F400731360084B1B68E3
:101DE000074A43F480631360032000F04DF900209C
:101DF00000F008F8FFF77AFD0023184680BD00BF09
:101E0000003C024080B582B000AF7860124B1A6887
:101E1000124B1B7819464FF47A73B3FBF1F3B2FB04
:101E2000F3F3184600F065F90346002B01D00123B7
:101E30000EE07B680F2B0AD8002279684FF0FF3044
:101E400000F02DF9064A7B681360002300E00123AF
:101E500018460837BD4680BD00000020080000205D
:101E60000400002080B400AF064B1B781A46064BD6
:101E70001B681344044A136000BFBD465DF8047B31
:101E8000704700BF08000020E80A002080B400AFBF
:101E9000034B1B681846BD465DF8047B704700BFC6
:101EA000E80A002080B584B000AF7860FFF7EEFF4D
:101EB000B8607B68FB60FB68B3F1FF3F05D0094B5E
:101EC0001B781A46FB681344FB6000BFFFF7DEFF78
:101ED0000246BB68D31AFA689A42F7D800BF103797
:101EE000BD4680BD0800002080B485B000AF78609A
:101EF0007B6803F00703FB600C4BDB68BB60BA68D0
:101F00004FF6FF031340BB60FB681A02BB68134324
:101F100043F0BF6343F40033BB60044ABB68D36043
:101F200000BF1437BD465DF8047B704700ED00E04C
:101F300080B400AF044BDB681B0A03F007031846AC
:101F4000BD465DF8047B704700ED00E080B483B0CF
:101F500000AF0346FB7197F90730002B0BDBFB79D1
:101F600003F01F02074997F907305B09012000FAC7
:101F700002F241F8232000BF0C37BD465DF8047B18
:101F8000704700BF00E100E080B483B000AF0346BB
:101F90003960FB7197F90730002B0ADB3B68DAB236
:101FA0000C4997F907301201D2B20B4483F8002391
:101FB0000AE03B68DAB20849FB7903F00F03043BFF
:101FC0001201D2B20B441A7600BF0C37BD465DF841
:101FD000047B704700E100E000ED00E080B489B0D0
:101FE00000AFF860B9607A60FB6803F00703FB613B
:101FF000FB69C3F10703042B28BF0423BB61FB6902
:102000000433062B02D9FB69033B00E000237B610C
:102010004FF0FF32BB6902FA03F3DA43BB681A40A0
:102020007B699A404FF0FF317B6901FA03F3D94392
:102030007B680B40134318462437BD465DF8047B8C
:102040007047000080B582B000AF78607B68013BCC
:10205000B3F1807F01D301230FE00A4A7B68013B83
:1020600053600F214FF0FF30FFF78EFF054B00222A
:102070009A60044B07221A60002318460837BD46B1
:1020800080BD00BF10E000E080B582B000AF786096
:102090007868FFF729FF00BF0837BD4680BD80B5CF
:1020A00086B000AF0346B9607A60FB7300237B61A2
:1020B000FFF73EFF78617A68B9687869FFF78EFFAD
:1020C000024697F90F3011461846FFF75DFF00BF33
:1020D0001837BD4680BD80B582B000AF0346FB71A6
:1020E00097F907301846FFF731FF00BF0837BD46A4
:1020F00080BD80B582B000AF78607868FFF7A2FF3E
:10210000034618460837BD4680BD000080B586B03E
:1021100000AF786000237B61FFF7B8FE38617B6811
:10212000002B01D1012399E07B68002283F8342041
:102130007B68022283F835207B681B681A687B68FD
:102140001B6822F001021A600FE0FFF79FFE0246B3
:102150003B69D31A052B08D97B6820225A657B6816
:10216000032283F83520032378E07B681B681B6813
:1021700003F00103002BE8D17B681B681B687B61BF
:102180007A69384B13407B617B685A687B689B682F
:102190001A437B68DB681A437B681B691A437B68B8
:1021A0005B691A437B689B691A437B68DB691A4346
:1021B0007B681B6A13437A6913437B617B685B6AA4
:1021C000042B07D17B68DA6A7B681B6B13437A693F
:1021D00013437B617B681B687A691A607B681B68A4
:1021E0005B697B617B6923F007037B617B685B6ACA
:1021F0007A6913437B617B685B6A042B17D17B6828
:102200009B6A7A6913437B617B68DB6A002B0ED083
:10221000786800F00BFA0346002B08D07B68402258
:102220005A657B68012283F83520012316E07B681C
:102230001B687A695A61786800F0C2F90346FB604E
:102240007B68DB6D3F229A40FB689A607B680022C6
:102250005A657B68012283F8352000231846183719
:10226000BD4680BD3F8010F080B483B000AF786081
:102270007B6893F83530DBB2022B04D07B68802278
:102280005A6501230CE07B68052283F835207B68C2
:102290001B681A687B681B6822F001021A60002321
:1022A00018460C37BD465DF8047B704780B586B094
:1022B00000AF78600023BB60924B1B68924AA2FB80
:1022C00003239B0A7B617B689B6D3B613B691B68B9
:1022D000FB607B68DB6D08229A40FB681340002B93
:1022E0001AD07B681B681B6803F00403002B13D013
:1022F0007B681B681A687B681B6822F004021A60FE
:102300007B68DB6D08229A403B699A607B685B6D55
:1023100043F001027B685A657B68DB6D01229A40BD
:10232000FB681340002B12D07B681B685B6903F0CD
:102330008003002B0BD07B68DB6D01229A403B6948
:102340009A607B685B6D43F002027B685A657B682C
:10235000DB6D04229A40FB681340002B12D07B688F
:102360001B681B6803F00203002B0BD07B68DB6D3E
:1023700004229A403B699A607B685B6D43F00402DB
:102380007B685A657B68DB6D10229A40FB681340BE
:10239000002B43D07B681B681B6803F00803002BED
:1023A0003CD07B68DB6D10229A403B699A607B6869
:1023B0001B681B6803F48023002B18D07B681B6804
:1023C0001B6803F40023002B08D17B681B6C002BD7
:1023D00024D07B681B6C786898471FE07B689B6CF7
:1023E000002B1BD07B689B6C7868984716E07B6855
:1023F0001B681B6803F48073002B07D17B681B6884
:102400001A687B681B6822F008021A607B681B6CE4
:10241000002B03D07B681B6C786898477B68DB6D6A
:1024200020229A40FB681340002B00F08E807B68CE
:102430001B681B6803F01003002B00F086807B688C
:10244000DB6D20229A403B699A607B6893F83530B7
:10245000DBB2052B36D17B681B681A687B681B686A
:1024600022F016021A607B681B685A697B681B6839
:1024700022F080025A617B681B6C002B03D17B68C1
:102480009B6C002B07D07B681B681A687B681B68F5
:1024900022F008021A607B68DB6D3F229A403B699C
:1024A0009A607B68002283F834207B68012283F8DD
:1024B00035207B681B6D002B7DD07B681B6D786899
:1024C000984778E07B681B681B6803F48023002B27
:1024D0001CD07B681B681B6803F40023002B08D109
:1024E0007B685B6C002B30D07B685B6C78689847AE
:1024F0002BE07B68DB6B002B27D07B68DB6B78687D
:10250000984722E000000020B5814E1B7B681B68C5
:102510001B6803F48073002B0FD17B681B681A685B
:102520007B681B6822F010021A607B68002283F827
:1025300034207B68012283F835207B68DB6B002B1D
:1025400003D07B68DB6B786898477B685B6D002BFA
:1025500032D07B685B6D03F00103002B22D07B68D7
:10256000052283F835207B681B681A687B681B6826
:1025700022F001021A60BB680133BB607A699A429B
:1025800007D37B681B681B6803F00103002BF2D1A3
:1025900000E000BF7B68002283F834207B680122C2
:1025A00083F835207B68DB6C002B05D07B68DB6C07
:1025B0007868984700E000BF1837BD4680BD00BF6F
:1025C00080B485B000AF78607B681B68DBB2103BDD
:1025D000144AA2FB03231B09FB60134AFB68134444
:1025E0001B781A467B68DA65FB68032B09D97B6880
:1025F0001B6823F47F7323F003031A1D7B689A651D
:1026000007E07B681B6823F47F7323F003037A6879
:1026100093657B689B6D18461437BD465DF8047B57
:10262000704700BFABAAAAAA801E010880B485B07B
:1026300000AF78600023FB737B689B6ABB607B689C
:102640009B69002B1FD1BB68032B55D801A252F800
:1026500023F000BF652600087726000865260008DD
:10266000F92600087B68DB6A03F08073002B45D0F5
:102670000123FB7342E07B68DB6AB3F1C07F3FD18B
:102680000123FB733CE07B689B69B3F5005F21D1BC
:10269000BB68032B36D801A252F823F0AD26000800
:1026A000B3260008AD260008C52600080123FB73E9
:1026B0002FE07B68DB6A03F08073002B24D00123BA
:1026C000FB7321E07B68DB6AB3F1C07F1ED101237D
:1026D000FB731BE0BB68022B02D9032B03D018E06D
:1026E0000123FB7315E07B68DB6A03F08073002B2A
:1026F0000ED00123FB730BE000BF0AE000BF08E02F
:1027000000BF06E000BF04E000BF02E000BF00E041
:1027100000BFFB7B18461437BD465DF8047B70474D
:1027200080B489B000AF7860396000237B610023FA
:102730003B610023BB610023FB6159E10122FB697E
:1027400002FA03F37B613B681B687A6913403B61C3
:102750003A697B699A4240F048813B685B68012B8B
:102760000BD03B685B68022B07D03B685B68112B82
:1027700003D03B685B68122B30D17B689B68BB61E0
:10278000FB695B00032202FA03F3DB43BA691340DF
:10279000BB613B68DA68FB695B0002FA03F3BA6964
:1027A0001343BB617B68BA699A607B685B68BB61F5
:1027B0000122FB6902FA03F3DB43BA691340BB61F0
:1027C0003B685B681B0903F00102FB6902FA03F333
:1027D000BA691343BB617B68BA695A607B68DB687E
:1027E000BB61FB695B00032202FA03F3DB43BA69B6
:1027F0001340BB613B689A68FB695B0002FA03F314
:10280000BA691343BB617B68BA69DA603B685B688D
:10281000022B03D03B685B68122B23D1FB69DA08DB
:102820007B68083253F82230BB61FB6903F0070371
:102830009B000F2202FA03F3DB43BA691340BB612A
:102840003B681A69FB6903F007039B0002FA03F374
:10285000BA691343BB61FB69DA087B680832B9695E
:1028600043F822107B681B68BB61FB695B00032295
:1028700002FA03F3DB43BA691340BB613B685B6850
:1028800003F00302FB695B0002FA03F3BA69134326
:10289000BB617B68BA691A603B685B6803F0805370
:1028A000002B00F0A2800023FB60564B5B6C554A66
:1028B00043F480435364534B5B6C03F48043FB60ED
:1028C000FB68514AFB699B08023352F82330BB6115
:1028D000FB6903F003039B000F2202FA03F3DB43BF
:1028E000BA691340BB617B68484A934219D07B6840
:1028F000474A934213D07B68464A93420DD07B6887
:10290000454A934207D07B68444A934201D104234D
:1029100008E0072306E0032304E0022302E001238A
:1029200000E00023FA6902F0030292009340BA69C2
:102930001343BB613449FB699B080233BA6941F810
:102940002320374B1B68BB613B69DB43BA691340EB
:10295000BB613B685B6803F48033002B03D0BA692A
:102960003B691343BB612E4ABB6913602C4B5B6808
:10297000BB613B69DB43BA691340BB613B685B6881
:1029800003F40033002B03D0BA693B691343BB61E6
:10299000234ABB695360224B9B68BB613B69DB43A5
:1029A000BA691340BB613B685B6803F48013002B7A
:1029B00003D0BA693B691343BB61194ABB69936091
:1029C000174BDB68BB613B69DB43BA691340BB61F2
:1029D0003B685B6803F40013002B03D0BA693B69C2
:1029E0001343BB610E4ABB69D360FB690133FB61D2
:1029F000FB690F2B7FF6A2AE00BF2437BD465DF802
:102A0000047B70470038024000380140000002405B
:102A10000004024000080240000C02400010024086
:102A2000003C014080B485B000AF78600B467B80ED
:102A30007B681A697B881340002B02D00123FB734B
:102A400001E00023FB73FB7B18461437BD465DF89D
:102A5000047B704780B483B000AF78600B467B8006
:102A600013467B707B78002B03D07A887B689A6151
:102A700003E07B881A047B689A6100BF0C37BD466F
:102A80005DF8047B704780B483B000AF78600B467C
:102A90007B807B685A697B881A407B889A4204D184
:102AA0007B881A047B689A6102E07A887B689A6165
:102AB00000BF0C37BD465DF8047B704780B586B01B
:102AC00000AF78607B68002B01D101235BE27B685B
:102AD0001B6803F00103002B75D0A34B9B6803F028
:102AE0000C03042B0CD0A04B9B6803F00C03082BA9
:102AF00012D19D4B5B6803F48003B3F5800F0BD1BB
:102B0000994B1B6803F40033002B5BD07B685B6838
:102B1000002B57D1012336E27B685B68B3F5803F19
:102B200006D1914B1B68904A43F4803313601DE03B
:102B30007B685B68B3F5A02F0CD18B4B1B688A4A6E
:102B400043F480231360884B1B68874A43F4803327
:102B500013600BE0844B1B68834A23F480331360BB
:102B6000814B1B68804A23F4802313607B685B6879
:102B7000002B13D0FFF78AF9386108E0FFF786F9D8
:102B800002463B69D31A642B01D90323FBE1764B40
:102B90001B6803F40033002BF0D014E0FFF776F944
:102BA000386108E0FFF772F902463B69D31A642BDB
:102BB00001D90323E7E16C4B1B6803F40033002BBE
:102BC000F0D100E000BF7B681B6803F00203002B1C
:102BD00063D0654B9B6803F00C03002B0BD0624B5A
:102BE0009B6803F00C03082B1CD15F4B5B6803F45C
:102BF0008003002B16D15C4B1B6803F00203002BF3
:102C000005D07B68DB68012B01D00123BBE1564B6B
:102C10001B6823F0F8027B681B69DB0052491343F1
:102C20000B603AE07B68DB68002B20D04F4B012221
:102C30001A60FFF72BF9386108E0FFF727F9024621
:102C40003B69D31A022B01D903239CE1464B1B6835
:102C500003F00203002BF0D0434B1B6823F0F80273
:102C60007B681B69DB00404913430B6015E03F4B59
:102C700000221A60FFF70AF9386108E0FFF706F949
:102C800002463B69D31A022B01D903237BE1364B61
:102C90001B6803F00203002BF0D17B681B6803F074
:102CA0000803002B30D07B685B69002B16D0304BBB
:102CB00001221A60FFF7EAF8386108E0FFF7E6F84A
:102CC00002463B69D31A022B01D903235BE1264B51
:102CD0005B6F03F00203002BF0D015E0244B0022C1
:102CE0001A60FFF7D3F8386108E0FFF7CFF8024623
:102CF0003B69D31A022B01D9032344E11A4B5B6FC2
:102D000003F00203002BF0D17B681B6803F004037F
:102D1000002B00F0A0800023FB75134B1B6C03F00D
:102D20008053002B0FD10023BB600F4B1B6C0E4A4E
:102D300043F0805313640C4B1B6C03F08053BB6057
:102D4000BB680123FB750B4B1B6803F48073002BDE
:102D500021D1084B1B68074A43F480731360FFF7C7
:102D600095F8386111E000BF00380240000047428A
:102D7000800E474200700040FFF788F802463B692A
:102D8000D31A022B01D90323FDE0814B1B6803F406
:102D90008073002BF0D07B689B68012B06D17D4BA4
:102DA0001B6F7C4A43F0010313671CE07B689B6840
:102DB000052B0CD1774B1B6F764A43F00403136746
:102DC000744B1B6F734A43F0010313670BE0714BA5
:102DD0001B6F704A23F0010313676E4B1B6F6D4A24
:102DE00023F0040313677B689B68002B15D0FFF763
:102DF0004DF838610AE0FFF749F802463B69D31AFB
:102E000041F28832934201D90323BCE0614B1B6F2E
:102E100003F00203002BEED014E0FFF737F838611F
:102E20000AE0FFF733F802463B69D31A41F28832D1
:102E3000934201D90323A6E0564B1B6F03F0020314
:102E4000002BEED1FB7D012B05D1524B1B6C514A5F
:102E500023F0805313647B689B69002B00F0928001
:102E60004C4B9B6803F00C03082B5CD07B689B6980
:102E7000022B41D1484B00221A60FFF707F8386156
:102E800008E0FFF703F802463B69D31A022B01D989
:102E9000032378E03F4B1B6803F00073002BF0D155
:102EA0007B68DA697B681B6A1A437B685B6A9B01F3
:102EB0001A437B689B6A5B08013B1B041A437B68CF
:102EC000DB6A1B06334913434B60334B01221A6004
:102ED000FEF7DCFF386108E0FEF7D8FF02463B69E9
:102EE000D31A022B01D903234DE02A4B1B6803F0B0
:102EF0000073002BF0D045E0274B00221A60FEF74C
:102F0000C5FF386108E0FEF7C1FF02463B69D31AEE
:102F1000022B01D9032336E01E4B1B6803F000731C
:102F2000002BF0D12EE07B689B69012B01D101239E
:102F300029E0184B9B68FB60FB6803F480027B6808
:102F4000DB699A421CD1FB6803F03F027B681B6A75
:102F50009A4215D1FA6847F6C07313407A68526AEC
:102F600093420DD1FB6803F440327B689B6A9A421E
:102F700006D1FB6803F070627B68DB6A9A4201D07D
:102F8000012300E0002318461837BD4680BD00BF6E
:102F900000700040003802406000474280B584B0B5
:102FA00000AF786039607B68002B01D10123CCE051
:102FB000684B1B6803F00F033A689A420CD9654BC3
:102FC0003A68D2B21A70634B1B6803F00F033A6879
:102FD0009A4201D00123B8E07B681B6803F002032A
:102FE000002B20D07B681B6803F00403002B05D066
:102FF000594B9B68584A43F4E05393607B681B68C5
:1030000003F00803002B05D0534B9B68524A43F44E
:1030100060439360504B9B6823F0F0027B689B6891
:103020004D4913438B607B681B6803F00103002B41
:1030300044D07B685B68012B07D1474B1B6803F4C6
:103040000033002B19D101237FE07B685B68022BE2
:1030500003D07B685B68032B07D13F4B1B6803F0F1
:103060000073002B09D101236FE03B4B1B6803F079
:103070000203002B01D1012367E0374B9B6823F04B
:1030800003027B685B68344913438B60FEF7FEFEE6
:10309000F8600AE0FEF7FAFE0246FB68D31A41F236
:1030A0008832934201D903234FE02B4B9B6803F0F6
:1030B0000C027B685B689B009A42EBD1254B1B6836
:1030C00003F00F033A689A420CD2224B3A68D2B20C
:1030D0001A70204B1B6803F00F033A689A4201D024
:1030E000012332E07B681B6803F00403002B08D047
:1030F000194B9B6823F4E0527B68DB681649134345
:103100008B607B681B6803F00803002B09D0124B0F
:103110009B6823F460427B681B69DB000E49134304
:103120008B6000F021F801460B4B9B681B0903F0F4
:103130000F030A4AD35C21FA03F3094A1360094BCF
:103140001B681846FEF75EFE002318461037BD4682
:1031500080BD00BF003C024000380240681E0108EC
:103160000000002004000020F0B585B000AF00236F
:103170007B600023FB6000233B600023BB60504B5F
:103180009B6803F00C03042B07D0082B08D0002BFE
:1031900040F08D804B4BBB608CE04B4BBB6089E0BB
:1031A000474B5B6803F03F037B60454B5B6803F470
:1031B0008003002B23D0424B5B689B094FF0000437
:1031C00040F2FF114FF0000203EA010504EA020693
:1031D0003D4A02FB06F1002202FB05F20A443A498D
:1031E000A5FB0101531819467B684FF000041A46ED
:1031F0002346FDF7E3FC03460C46FB6049E0304BF9
:103200005B689B094FF0000440F2FF114FF0000291
:1032100003EA010504EA0206294632464FF000039C
:103220004FF00004540144EAD1644B011946224690
:10323000491B62EB06024FF000034FF000049401BB
:1032400044EA91648B015B1A64EB02044FF00001C5
:103250004FF00002E20042EA5372D9000B461446D6
:103260005B1944EB06044FF000014FF00002A2028C
:1032700042EA935299020B461446184621467B684F
:103280004FF000041A462346FDF798FC03460C460F
:10329000FB600B4B5B681B0C03F0030301335B000B
:1032A0003B60FA683B68B2FBF3F3BB6002E0054B9E
:1032B000BB6000BFBB6818461437BD46F0BD00BFF9
:1032C000003802400024F40000366E0180B400AFE4
:1032D000034B1B681846BD465DF8047B704700BF72
:1032E0000000002080B500AFFFF7F0FF0146054B5E
:1032F0009B689B0A03F00703034AD35C21FA03F39C
:10330000184680BD00380240781E010880B500AF25
:10331000FFF7DCFF0146054B9B685B0B03F00703DF
:10332000034AD35C21FA03F3184680BD00380240FB
:10333000781E010880B582B000AF78607B68002BF2
:1033400001D1012356E07B6800229A627B6893F8E2
:103350005130DBB2002B06D17B68002283F850206D
:103360007868FEF7EBFA7B68022283F851207B68CD
:103370001B681A687B681B6822F040021A607B6831
:103380005A687B689B681A437B68DB681A437B68D2
:103390001B691A437B685B691A437B689B6903F46A
:1033A00000731A437B68DB691A437B681B6A42EA35
:1033B00003017B689A6A7B681B680A431A607B6812
:1033C0009B691B0C03F004017B685A6A7B681B68CD
:1033D0000A435A607B681B68DA697B681B6822F4C1
:1033E0000062DA617B6800225A657B68012283F8FB
:1033F0005120002318460837BD4680BD80B58CB0EB
:1034000000AFF860B9607A607B800123FB62002323
:1034100087F82B30FB6893F85030012B01D1022341
:103420008AE1FB68012283F85020FEF72FFD7862C5
:10343000FB6893F8513087F82330FB685B68FB61C9
:103440007B887B8397F82330012B0FD0FB69B3F582
:10345000827F07D1FB689B68002B03D197F823304C
:10346000042B03D0022387F82B305BE1BB68002BD1
:1034700005D07B68002B02D07B88002B03D1012371
:1034800087F82B304EE1FB6893F85130DBB2042B08
:1034900003D0FB68052283F85120FB6800225A659F
:1034A000FB687A689A63FB687A88DA87FB687A88AF
:1034B0009A87FB68BA681A63FB687A88DA86FB68C1
:1034C0007A889A86FB6800221A64FB6800225A6494
:1034D000FB681B681B6803F04003402B07D0FB68A8
:1034E0001B681A68FB681B6842F040021A60FB68A0
:1034F000DB68B3F5006F78D1FB685B68002B02D006
:103500007B8B012B66D1FB681B6B1A88FB681B68E1
:10351000DA60FB681B6B9A1CFB681A63FB68DB8E26
:103520009BB2013B9AB2FB68DA8653E0FB681B68EA
:103530009B6803F00203022B1BD1FB68DB8E9BB25E
:10354000002B16D0FB6A012B13D1FB681B6B1A886A
:10355000FB681B68DA60FB681B6B9A1CFB681A63CC
:10356000FB68DB8E9BB2013B9AB2FB68DA860023D4
:10357000FB62FB681B689B6803F00103012B19D1F8
:10358000FB68DB8F9BB2002B14D0FB681B68DA68EA
:10359000FB689B6B92B21A80FB689B6B9A1CFB6862
:1035A0009A63FB68DB8F9BB2013B9AB2FB68DA87B8
:1035B0000123FB62FEF76AFC02467B6AD31ABA6BF0
:1035C0009A4207D8BB6BB3F1FF3F03D0032387F8C0
:1035D0002B30A7E0FB68DB8E9BB2002BA6D1FB68EB
:1035E000DB8F9BB2002BA1D17CE0FB685B68002BDA
:1035F00002D07B8B012B6BD1FB681A6BFB681B68BD
:103600000C3312781A70FB681B6B5A1CFB681A6328
:10361000FB68DB8E9BB2013B9AB2FB68DA8657E00F
:10362000FB681B689B6803F00203022B1CD1FB683C
:10363000DB8E9BB2002B17D0FB6A012B14D1FB68E9
:103640001A6BFB681B680C3312781A70FB681B6BD3
:103650005A1CFB681A63FB68DB8E9BB2013B9AB273
:10366000FB68DA860023FB62FB681B689B6803F03B
:103670000103012B19D1FB68DB8F9BB2002B14D007
:10368000FB681B68DA68FB689B6BD2B21A70FB6838
:103690009B6B5A1CFB689A63FB68DB8F9BB2013BF8
:1036A0009AB2FB68DA870123FB62FEF7EFFB024662
:1036B0007B6AD31ABA6B9A4203D8BB6BB3F1FF3F54
:1036C00002D1BB6B002B03D1032387F82B3029E0F9
:1036D000FB68DB8E9BB2002BA2D1FB68DB8F9BB219
:1036E000002B9DD17A6AB96BF86800F0B1F90346F6
:1036F000002B06D0012387F82B30FB6820225A6567
:1037000010E0FB689B68002B0BD100237B61FB68FA
:103710001B68DB687B61FB681B689B687B617B695E
:1037200000E000BFFB68012283F85120FB68002203
:1037300083F8502097F82B3018463037BD4680BDAF
:1037400080B588B000AF78607B681B685B68FB6100
:103750007B681B689B68BB61BB699B0903F0010325
:10376000002B0FD1BB6903F00103002B0AD0FB69CA
:103770009B0903F00103002B04D07B681B6C786865
:103780009847D8E0BB695B0803F00103002B0AD01F
:10379000FB69DB0903F00103002B04D07B685B6C41
:1037A00078689847C7E0BB695B0903F00103002B09
:1037B0000CD1BB699B0903F00103002B06D1BB6947
:1037C0001B0A03F00103002B00F0B580FB695B09C5
:1037D00003F00103002B00F0AE80BB699B0903F0EE
:1037E0000103002B23D07B6893F85130DBB2032B0D
:1037F00011D07B685B6D43F004027B685A6500233F
:103800007B617B681B68DB687B617B681B689B68EE
:103810007B617B690BE000233B617B681B68DB6895
:103820003B617B681B689B683B613B6983E0BB69CC
:103830005B0903F00103002B14D07B685B6D43F040
:1038400001027B685A650023FB607B681B689B68EC
:10385000FB607B681B681A687B681B6822F040026B
:103860001A60FB68BB691B0A03F00103002B0CD034
:103870007B685B6D43F008027B685A650023BB6080
:103880007B681B689B68BB60BB687B685B6D002BBB
:1038900050D07B681B685A687B681B6822F0E00286
:1038A0005A607B68012283F85120FB6903F0020310
:1038B000002B04D1FB6903F00103002B34D07B689B
:1038C0001B685A687B681B6822F003025A607B6899
:1038D000DB6C002B11D07B68DB6C184A1A657B68A7
:1038E000DB6C1846FEF7C0FC0346002B05D07B6856
:1038F0005B6D43F040027B685A657B689B6C002BD4
:1039000016D07B689B6C0D4A1A657B689B6C1846C9
:10391000FEF7AAFC0346002B0AD07B685B6D43F0E0
:1039200040027B685A6503E0786800F009F800E01F
:1039300000BF00BF00BF2037BD4680BD553900081D
:1039400080B483B000AF786000BF0C37BD465DF82F
:10395000047B704780B584B000AF78607B689B6B58
:10396000FB60FB680022DA87FB680022DA86F868D1
:10397000FFF7E6FF00BF1037BD4680BD80B584B0BD
:1039800000AFF860B9603B601346FB714CE03B68E8
:10399000B3F1FF3F48D0FEF779FA0246BB69D31A6C
:1039A0003A689A4202D93B68002B3DD1FB681B68FC
:1039B0005A68FB681B6822F0E0025A60FB685B688B
:1039C000B3F5827F11D1FB689B68B3F5004F04D03B
:1039D000FB689B68B3F5806F07D1FB681B681A68AA
:1039E000FB681B6822F040021A60FB689B6AB3F513
:1039F000005F0FD1FB681B681A68FB681B6822F424
:103A000000521A60FB681B681A68FB681B6842F466
:103A100000521A60FB68012283F85120FB680022E3
:103A200083F8502003230FE0FB681B689A68BB688B
:103A30001340BA689A420CBF01230023DBB21A4636
:103A4000FB799A42A3D1002318461037BD4680BDAA
:103A500080B588B002AFF860B9607A601B4B1B6814
:103A60001B4AA2FB03235B0D4FF47A7202FB03F3A4
:103A70007B61FB685B68B3F5827F12D17B68009342
:103A8000BB6800228021F868FFF778FF0346002B0F
:103A900016D0FB685B6D43F02002FB685A65032378
:103AA0000FE07B69002B0AD07B69013B7B61FB68DF
:103AB0001B689B6803F08003802BF2D000E000BFFE
:103AC000002318461837BD4680BD00BF0000002007
:103AD000819F5E1680B582B000AF78607B68002B56
:103AE00001D101231DE07B6893F83D30DBB2002B50
:103AF00006D17B68002283F83C207868FDF76EFFD2
:103B00007B68022283F83D207B681A687B68043357
:103B10001946104600F0EEF97B68012283F83D203B
:103B2000002318460837BD4680BD80B582B000AF7F
:103B300078607B68002B01D101231DE07B6893F83E
:103B40003D30DBB2002B06D17B68002283F83C209D
:103B5000786800F015F87B68022283F83D207B68C6
:103B60001A687B6804331946104600F0C3F97B6875
:103B7000012283F83D20002318460837BD4680BD4A
:103B800080B483B000AF786000BF0C37BD465DF8ED
:103B9000047B704780B584B000AF786039607B6883
:103BA0001B6801223968184600F04AFC7B681B68D4
:103BB000104A934207D17B681B685A6C7B681B686C
:103BC00042F400425A647B681B689B6803F0070359
:103BD000FB60FB68062B07D07B681B681A687B6854
:103BE0001B6842F001021A60002318461037BD46D8
:103BF00080BD00BF0000014080B584B000AFF86018
:103C0000B9607A60FB6893F83C30012B01D1022344
:103C1000B4E0FB68012283F83C20FB68022283F8B1
:103C20003D207B680C2B00F29F8001A252F823F00C
:103C3000653C0008693D0008693D0008693D0008D1
:103C4000A53C0008693D0008693D0008693D000881
:103C5000E73C0008693D0008693D0008693D00082F
:103C6000273D0008FB681B68B968184600F0C2F9D8
:103C7000FB681B689A69FB681B6842F008029A613E
:103C8000FB681B689A69FB681B6822F004029A6152
:103C9000FB681B689969BB681A69FB681B680A4363
:103CA0009A6162E0FB681B68B968184600F008FA80
:103CB000FB681B689A69FB681B6842F400629A61A2
:103CC000FB681B689A69FB681B6822F480629A6132
:103CD000FB681B689969BB681B691A02FB681B6853
:103CE0000A439A6141E0FB681B68B968184600F016
:103CF00053FAFB681B68DA69FB681B6842F008022C
:103D0000DA61FB681B68DA69FB681B6822F0040251
:103D1000DA61FB681B68D969BB681A69FB681B68B4
:103D20000A43DA6121E0FB681B68B968184600F0B5
:103D30009DFAFB681B68DA69FB681B6842F4006245
:103D4000DA61FB681B68DA69FB681B6822F4806231
:103D5000DA61FB681B68D969BB681B691A02FB68DA
:103D60001B680A43DA6100E000BFFB68012283F8A8
:103D70003D20FB68002283F83C20002318461037C2
:103D8000BD4680BD80B584B000AF786039607B6887
:103D900093F83C30012B01D10223A6E07B6801227D
:103DA00083F83C207B68022283F83D207B681B68F7
:103DB0009B68FB60FB6823F07703FB60FB6823F4E0
:103DC0007F43FB607B681B68FA689A603B681B68EE
:103DD000402B67D0402B0BD8102B73D0102B02D860
:103DE000002B6FD078E0202B6CD0302B6AD073E0A2
:103DF000702B0DD0702B04D8502B33D0602B41D0BA
:103E00006AE0B3F5805F66D0B3F5005F17D063E07A
:103E10007B6818683B6899683B685A683B68DB6850
:103E200000F0EEFA7B681B689B68FB60FB6843F060
:103E30007703FB607B681B68FA689A604CE07B68DC
:103E400018683B6899683B685A683B68DB6800F013
:103E5000D7FA7B681B689A687B681B6842F48042CB
:103E60009A6039E07B6818683B6859683B68DB6892
:103E70001A4600F04BFA7B681B685021184600F088
:103E8000A4FA29E07B6818683B6859683B68DB68DE
:103E90001A4600F06AFA7B681B686021184600F039
:103EA00094FA19E07B6818683B6859683B68DB68DE
:103EB0001A4600F02BFA7B681B684021184600F078
:103EC00084FA09E07B681A683B681B68194610464B
:103ED00000F07BFA00E000BF7B68012283F83D2000
:103EE0007B68002283F83C20002318461037BD462B
:103EF00080BD000080B485B000AF786039607B6819
:103F00001B68FB607B68344A93420FD07B68B3F137
:103F1000804F0BD07B68314A934207D07B68304A90
:103F2000934203D07B682F4A934208D1FB6823F069
:103F30007003FB603B685B68FA681343FB607B6857
:103F4000254A93421BD07B68B3F1804F17D07B6822
:103F5000224A934213D07B68214A93420FD07B6858
:103F6000204A93420BD07B681F4A934207D07B685C
:103F70001E4A934203D07B681D4A934208D1FB68D6
:103F800023F44073FB603B68DB68FA681343FB6013
:103F9000FB6823F080023B685B691343FB607B682E
:103FA000FA681A603B689A687B68DA623B681A684C
:103FB0007B689A627B68084A934203D13B681A691E
:103FC0007B681A637B6801225A6100BF1437BD46C3
:103FD0005DF8047B704700BF000001400004004012
:103FE00000080040000C0040004001400044014037
:103FF0000048014080B487B000AF786039607B68CA
:104000001B6A23F001027B681A627B681B6A7B6172
:104010007B685B683B617B689B69FB60FB6823F0A6
:104020007003FB60FB6823F00303FB603B681B68C5
:10403000FA681343FB607B6923F002037B613B68F2
:104040009B687A6913437B617B681C4A93420CD15D
:104050007B6923F008037B613B68DB687A69134363
:104060007B617B6923F004037B617B68134A934285
:1040700011D13B6923F480733B613B6923F40073E6
:104080003B613B685B693A6913433B613B689B69F1
:104090003A6913433B617B683A695A607B68FA6806
:1040A0009A613B685A687B685A637B687A691A62CE
:1040B00000BF1C37BD465DF8047B7047000001401F
:1040C00080B487B000AF786039607B681B6A23F0EA
:1040D00010027B681A627B681B6A7B617B685B6885
:1040E0003B617B689B69FB60FB6823F4E043FB60FA
:1040F000FB6823F44073FB603B681B681B02FA6893
:104100001343FB607B6923F020037B613B689B6862
:104110001B017A6913437B617B681E4A93420DD170
:104120007B6923F080037B613B68DB681B017A6954
:1041300013437B617B6923F040037B617B68154AF5
:10414000934213D13B6923F480633B613B6923F4C1
:1041500000633B613B685B699B003A6913433B61C9
:104160003B689B699B003A6913433B617B683A69F2
:104170005A607B68FA689A613B685A687B689A6300
:104180007B687A691A6200BF1C37BD465DF8047B04
:10419000704700BF0000014080B487B000AF786076
:1041A00039607B681B6A23F480727B681A627B68C3
:1041B0001B6A7B617B685B683B617B68DB69FB60DA
:1041C000FB6823F07003FB60FB6823F00303FB60D4
:1041D0003B681B68FA681343FB607B6923F4007338
:1041E0007B613B689B681B027A6913437B617B6838
:1041F0001D4A93420DD17B6923F400637B613B68C8
:10420000DB681B027A6913437B617B6923F480635B
:104210007B617B68144A934213D13B6923F480533A
:104220003B613B6923F400533B613B685B691B01C5
:104230003A6913433B613B689B691B013A6913432D
:104240003B617B683A695A607B68FA68DA613B686F
:104250005A687B68DA637B687A691A6200BF1C3728
:10426000BD465DF8047B70470000014080B487B014
:1042700000AF786039607B681B6A23F480527B68EA
:104280001A627B681B6A3B617B685B687B617B6849
:10429000DB69FB60FB6823F4E043FB60FB6823F40D
:1042A0004073FB603B681B681B02FA681343FB60AA
:1042B0003B6923F400533B613B689B681B033A69ED
:1042C00013433B617B68104A934209D17B6923F415
:1042D00080437B613B685B699B017A6913437B6127
:1042E0007B687A695A607B68FA68DA613B685A6869
:1042F0007B681A647B683A691A6200BF1C37BD4646
:104300005DF8047B704700BF0000014080B487B0B7
:1043100000AFF860B9607A60FB681B6A7B61FB687C
:104320001B6A23F00102FB681A62FB689B693B6110
:104330003B6923F0F0033B617B681B013A6913433F
:104340003B617B6923F00A037B617A69BB68134395
:104350007B61FB683A699A61FB687A691A6200BFFF
:104360001C37BD465DF8047B704780B487B000AF52
:10437000F860B9607A60FB681B6A23F01002FB6882
:104380001A62FB689B697B61FB681B6A3B617B6906
:1043900023F470437B617B681B037A6913437B6161
:1043A0003B6923F0A0033B61BB681B013A691343DF
:1043B0003B61FB687A699A61FB683A691A6200BFDF
:1043C0001C37BD465DF8047B704780B485B000AFF4
:1043D000786039607B689B68FB60FB6823F0700342
:1043E000FB603A68FB68134343F00703FB607B689C
:1043F000FA689A6000BF1437BD465DF8047B7047C9
:1044000080B487B000AFF860B9607A603B60FB6849
:104410009B687B617B6923F47F437B613B681A0265
:104420007B681A43BB6813437A6913437B61FB685B
:104430007A699A6000BF1C37BD465DF8047B7047FF
:1044400080B487B000AFF860B9607A60BB6803F0F1
:104450001F03012202FA03F37B61FB681A6A7B697E
:10446000DB431A40FB681A62FB681A6ABB6803F0F8
:104470001F03796801FA03F31A43FB681A6200BF4D
:104480001C37BD465DF8047B7047000080B485B0E2
:1044900000AF786039607B6893F83C30012B01D124
:1044A000022350E07B68012283F83C207B680222D3
:1044B00083F83D207B681B685B68FB607B681B683A
:1044C0009B68BB60FB6823F07003FB603B681B6864
:1044D000FA681343FB607B681B68FA685A607B6864
:1044E0001B681C4A934218D07B681B68B3F1804F4D
:1044F00013D07B681B68184A93420ED07B681B68F8
:10450000164A934209D07B681B68154A934204D02F
:104510007B681B68134A93420CD1BB6823F080036D
:10452000BB603B685B68BA681343BB607B681B6811
:10453000BA689A607B68012283F83D207B6800227C
:1045400083F83C20002318461437BD465DF8047BF1
:10455000704700BF00000140000400400008004018
:10456000000C00400040014080B582B000AF786090
:104570007B68002B01D101233FE07B6893F8393041
:10458000DBB2002B06D17B68002283F838207868E4
:10459000FDF780FA7B68242283F839207B681B684A
:1045A000DA687B681B6822F40052DA60786800F0F1
:1045B00029F87B681B681A697B681B6822F49042A3
:1045C0001A617B681B685A697B681B6822F02A02A3
:1045D0005A617B681B68DA687B681B6842F400528A
:1045E000DA607B680022DA637B68202283F8392056
:1045F0007B68202283F83A20002318460837BD46FE
:1046000080BD00002DE9F04F85B000AF78607B6879
:104610001B681B6923F440517B68DA687B681B6860
:104620000A431A617B689A687B681B691A437B6836
:104630005B691A437B68DB691343FB607B681B681B
:10464000DB6823F4164323F00C037A681268F968D8
:104650000B43D3607B681B685B6923F440717B6804
:104660009A697B681B680A435A617B68DB69B3F50A
:10467000004F40F08B817B681B68C14A934205D094
:104680007B681B68BF4A934240F0BD80FEF73EFE48
:10469000B860BB681D464FF00006A846B14618EB4F
:1046A000080349EB09049846A14618EB050849EBB5
:1046B00006094FF000014FF000024FEAC90242EA3A
:1046C00058724FEAC8018846914618EB050049EB3D
:1046D00006017B685B681D464FF000066B1946EBD0
:1046E00006041A462346FCF769FA03460C461A46A6
:1046F000A54BA3FB02235B094FEA0318BB681D46C9
:104700004FF00006A946B24619EB09034AEB0A042A
:104710009946A24619EB05094AEB060A4FF000013B
:104720004FF000024FEACA0242EA59724FEAC90149
:104730008946924619EB05004AEB06017B685B68E7
:104740001D464FF000066B1946EB06041A46234639
:10475000FCF734FA03460C461A468B4BA3FB0213B4
:104760005B09642101FB03F3D31ADB003233864A71
:10477000A2FB03235B095B0003F4F8739844BB6856
:104780001D464FF00006A946B24619EB09034AEB55
:104790000A049946A24619EB05094AEB060A4FF0AE
:1047A00000014FF000024FEACA0242EA59724FEA92
:1047B000C9018946924619EB05004AEB06017B6860
:1047C0005B681D464FF000066B1946EB06041A465F
:1047D0002346FCF7F3F903460C461A466A4BA3FB43
:1047E00002135B09642101FB03F3D31ADB003233AC
:1047F000654AA2FB03235B0903F007027B681B6881
:1048000042449A606FE2FEF76DFDB860BB681D46DA
:104810004FF00006A846B14618EB080349EB09041F
:104820009846A14618EB050849EB06094FF0000130
:104830004FF000024FEAC90242EA58724FEAC8013B
:104840008846914618EB050049EB06017B685B68DA
:104850001D464FF000066B1946EB06041A46234628
:10486000FCF7ACF903460C461A46474BA3FB022360
:104870005B094FEA0318BB681D464FF00006A946C6
:10488000B24619EB09034AEB0A049946A24619EB12
:1048900005094AEB060A4FF000014FF000024FEA0B
:1048A000CA0242EA59724FEAC9018946924619EB97
:1048B00005004AEB06017B685B681D464FF0000669
:1048C0006B1946EB06041A462346FCF777F90346B4
:1048D0000C461A462C4BA3FB02135B09642101FB17
:1048E00003F3D31ADB003233274AA2FB03235B090D
:1048F0005B0003F4F8739844BB681D464FF0000654
:10490000A946B24619EB09034AEB0A049946A246A6
:1049100019EB05094AEB060A4FF000014FF00002BF
:104920004FEACA0242EA59724FEAC90189469246E1
:1049300019EB05004AEB06017B685B681D464FF0EA
:1049400000066B1946EB06041A462346FCF736F9B7
:1049500003460C461A460C4BA3FB02135B09642169
:1049600001FB03F3D31ADB003233074AA2FB032314
:104970005B0903F007027B681B6842449A60B2E15E
:1049800000100140001401401F85EB517B681B683B
:10499000D74A934205D07B681B68D64A934240F0C1
:1049A000D180FEF7B3FCB860BB689A464FF0000BAD
:1049B000D046D94618EB080349EB09049846A146AE
:1049C00018EB0A0849EB0B094FF000014FF0000209
:1049D0004FEAC90242EA58724FEAC8018846914636
:1049E0001AEB08054BEB09067B685B6819464FF02C
:1049F00000024FF000034FF00004940044EA917469
:104A00008B001A46234628463146FCF7D7F8034662
:104A10000C461A46B84BA3FB02235B094FEA031866
:104A2000BB689B464FF0000CD946E24619EB0903E0
:104A30004AEB0A049946A24619EB0B094AEB0C0A09
:104A40004FF000014FF000024FEACA0242EA5972E9
:104A50004FEAC901894692461BEB09054CEB0A0651
:104A60007B685B6819464FF000024FF000034FF07F
:104A70000004940044EA91748B001A4623462846A9
:104A80003146FCF79BF803460C461A469A4BA3FBAB
:104A900002135B09642101FB03F3D31A1B013233B8
:104AA000954AA2FB03235B0903F0F0039844BB681B
:104AB0009B464FF0000CD946E24619EB09034AEB3E
:104AC0000A049946A24619EB0B094AEB0C0A4FF06F
:104AD00000014FF000024FEACA0242EA59724FEA5F
:104AE000C901894692461BEB09054CEB0A067B6817
:104AF0005B6819464FF000024FF000034FF00004CE
:104B0000940044EA91748B001A46234628463146A5
:104B1000FCF754F803460C461A46774BA3FB0213E6
:104B20005B09642101FB03F3D31A1B013233724A80
:104B3000A2FB03235B0903F00F027B681B6842445E
:104B40009A60D0E0FEF7CEFBB860BB689A464FF0A3
:104B5000000BD046D94618EB080349EB09049846E8
:104B6000A14618EB0A0849EB0B094FF000014FF082
:104B700000024FEAC90242EA58724FEAC801884669
:104B800091461AEB08054BEB09067B685B681946F2
:104B90004FF000024FF000034FF00004940044EA8D
:104BA00091748B001A46234628463146FCF706F8D6
:104BB00003460C461A46504BA3FB02235B094FEAFF
:104BC0000318BB689B464FF0000CD946E24619EB30
:104BD00009034AEB0A049946A24619EB0B094AEB72
:104BE0000C0A4FF000014FF000024FEACA0242EAFD
:104BF00059724FEAC901894692461BEB09054CEBF5
:104C00000A067B685B6819464FF000024FF000030C
:104C10004FF00004940044EA91748B001A46234636
:104C200028463146FBF7CAFF03460C461A46324B6C
:104C3000A3FB02135B09642101FB03F3D31A1B01DD
:104C400032332D4AA2FB03235B0903F0F00398449F
:104C5000BB689B464FF0000CD946E24619EB0903AE
:104C60004AEB0A049946A24619EB0B094AEB0C0AD7
:104C70004FF000014FF000024FEACA0242EA5972B7
:104C80004FEAC901894692461BEB09054CEB0A061F
:104C90007B685B6819464FF000024FF000034FF04D
:104CA0000004940044EA91748B001A462346284677
:104CB0003146FBF783FF03460C461A460E4BA3FB17
:104CC00002135B09642101FB03F3D31A1B01323386
:104CD000094AA2FB03235B0903F00F027B681B68F0
:104CE00042449A60FFE700BF1437BD46BDE8F08F2D
:104CF00000100140001401401F85EB5138B5154DDF
:104D00002C782CB910B101F033FF48B9204638BDDA
:104D1000114A1249022001F0DFFF2C78204638BDED
:104D200000F0E2F930B9287870B90D4A0B4901F06A
:104D3000D3FFF2E700F0BAFB0028F4D000F090FDBA
:104D40000028F0D001232B70064A0449022001F00C
:104D5000C3FFE2E794010020C41E0108A81E010859
:104D6000AC1E0108881E010810B50A4C237803B94F
:104D700010BD00F0CFF900F0A3FB00F0BBFD064A28
:104D80000649022001F0A8FF01F028FF002323704C
:104D900010BD00BF94010020EC1E0108A81E0108F0
:104DA00008B18069704710B5034A044904460120E0
:104DB00001F092FF204610BDC81F0108E41F010842
:104DC00038B5114B1C78BCB1054618B10F4B0268C1
:104DD0009A4207D00E4A0F49002001F07DFF0024BF
:104DE000204638BD037B022BFAD1C06908B100F020
:104DF00043FC00232B73F3E72046074B074A054982
:104E000001F06AFF204638BD95010020E89EC0AC45
:104E1000401F0108E41F0108101F0108601F01085E
:104E200038B5134B1C78D4B1054618B1114B026844
:104E30009A4207D0104A1149002001F04DFF00248A
:104E4000204638BD037B002BFAD1C06901232B73A8
:104E500008B100F04DFC02232B73204638BD084BEF
:104E6000084A0649012001F037FF204638BD00BF3F
:104E700095010020E89EC0AC401F0108E41F010816
:104E8000281F0108601F010838B50D460446114669
:104E900028461A46049B00F0B3FBE061003018BFBF
:104EA000012038BDC06900F083BC00BFC36913B1E5
:104EB0001C3000F04DBC704770B50D4682B0044602
:104EC00018B1354B02689A4213D0344A3449002055
:104ED00001F002FF6B6883B1AB6873B1237B23B130
:104EE000304A2F49002001F0F7FE0025284602B085
:104EF00070BD4B680BB18B682BB92B4A2849002039
:104F000001F0EAFEEAE783680A781B799A4206D044
:104F10000092264A2249002001F0DEFEDEE7C06949
:104F20004E7800F049FC864206D0E06900F044FC6F
:104F3000009603461E4AEDE72E7DE6B9237B002B43
:104F4000CED1012325626373E06900F047FB637BE8
:104F5000022B08BF6D7D4FF000030CBF85F00105EB
:104F6000002563732362002EC0D02046FFF758FF50
:104F7000284602B070BD2046FFF722FF237B06467D
:104F800013B9002EDDD1B0E7064A0549002001F033
:104F9000A3FE0025E7E700BFE89EC0AC401F010864
:104FA000E41F01087C200108EC1F010818200108FB
:104FB00044200108F8B5046A9DF818600546606849
:104FC0001F4688B14EB1E068667518B1226939464E
:104FD00007F0D2F802236B73F8BDA3689A4228BF8A
:104FE0001A4607F0C9F8EEE7024A0349032001F028
:104FF00073FEE8E7A4200108E41F0108014B1870C4
:10500000704700BF9501002008B518B10268064B33
:105010009A4206D0054A0649002001F05DFE0020B4
:1050200008BD012008BD00BFE89EC0AC401F0108BC
:10503000E41F010808B518B10268064B9A4206D071
:10504000054A0649002001F047FE002008BD012066
:1050500008BD00BFD79DC0ACA01F0108E41F010818
:1050600008B518B10B4B02689A4206D00A4A0B49A0
:10507000002001F031FE002008BDC368013B042B75
:1050800001D8012008BD064A0449002001F024FE91
:10509000002008BDD79DC0ACA01F0108E41F010877
:1050A000781F010838B10269034622B110B45DF8D7
:1050B000044BD9601047024A0249012001F00CBE9E
:1050C000C81F0108E41F010830B4029D017103618B
:1050D00004490160002329468261836030BCFFF7E8
:1050E000E1BF00BFD79DC0AC38B5094D2C780CB1DD
:1050F000204638BD01F0EAFE044610B92C7820465F
:1051000038BD0120FFF77AFF01232B70204638BD00
:105110009601002008B501F0EBFE0020FFF76EFFBE
:10512000014B00221A7008BD96010020084B10B5F3
:105130001C782CB101F048FF08B10223037310BDA5
:105140002046044B044A054901F0C6FD204610BD27
:1051500096010020CC200108601F0108F4200108FE
:105160000D4B1B7843B130B110B504460068FFF712
:105170004BFF38B910BD7047084B094A0949012057
:1051800001F0AABD2068FFF74BFE206801F0D4FEB5
:105190000023236010BD00BF96010020E02001081D
:1051A000601F0108F420010870B584B04C798DF8B7
:1051B0000D400B461546CA6800941E798DF80E60A6
:1051C000014628469D798DF80C5003ABFFF7F2FE9F
:1051D00004B070BD08B5034A0349012001F07CFD0D
:1051E000002008BDA4210108BC21010838B50D46E6
:1051F00010B10379022B03D0FFF7ECFF00B938BDE3
:1052000000F11C040F21204601F0ECFA691E04296C
:10521000F5D8DFE801F00D17191B03001021204617
:1052200001F0F8FA20460121BDE8384001F00ABB40
:105230000021204601F0EEFA20460421BDE8384066
:1052400001F000BB0721F4E70921F2E70C21E6E7B2
:10525000F0B54C2383B0354A7821012001F006FDDA
:10526000054600285AD000F11C0402272246394680
:1052700000972F4BFFF728FF01260523A5F86E3076
:10528000204685F86C609FED2B0A01F071F99FEDC7
:105290002A0A204601F08EF920460A2101F004FA7C
:1052A0003146204601F06EFA20460B2101F082FAC9
:1052B0003146204601F03EF9204601F08DF939468D
:1052C000204601F09FF92046002101F0E5FA204632
:1052D000002101F0C5FA2046002101F0ADF9204679
:1052E000002101F0C5F92046FF2101F001FB204615
:1052F000002101F0EDFA3146204601F013FB314662
:10530000204601F02BFB20460C4901F0DBF920463A
:105310000B4901F0E5F9284603B0F0BD094B0A4AF4
:105320000A4901F0D9FC284603B0F0BD302101083C
:10533000ED510008CDCC4C3ECDCCCC3EB56D000837
:10534000B96D0008042101084C210108BC210108A5
:1053500068B110B50446006810B10379022B01D082
:10536000FFF738FF01F0A6FC0023236010BD704753
:1053700010B50C4610B10379022B02D0FFF72AFFBB
:1053800008B1A0F86E4010BD48B110B40C4619B178
:105390009C300FC884E80F005DF8044B70477047DD
:1053A00070B586B0520001910292022600220425B7
:1053B0000324694603938DF800608DF8015004942E
:1053C0008DF814208DF81520FFF776FD06B070BD1E
:1053D00030B5044689B02430FFF742FE18B90025E5
:1053E000284609B030BD04F14005284601F082FB93
:1053F0000028F4D0284601F089FA431E9BB2012B05
:1054000001D9042834D1284601F0C4F8B4F8923008
:105410009FED207A07EE903AF8EEE77A80EE270AC1
:10542000B4EEC70AF1EE10FA28D4294600941A4BBC
:1054300004F188022046FFF727FD05460028CED05C
:1054400003A92046FFF72EFD039B04980799BDF89A
:105450001620C4F89C30B4F89230C4F8A000284656
:10546000C4F8A810A4F8A620A4F8A43009B030BD50
:105470000A4A0B49002001F02FFCB0E700204FF44E
:105480007A53CDE90003074A05492023054601F078
:1054900023FCA5E76F12833CA95100086021010895
:1054A000BC21010880210108FFF700BD034B1A78D9
:1054B0000AB901221A700120704700BF970100202D
:1054C000014B00221A707047970100200623437198
:1054D0000020704710B50446806818B103699847EA
:1054E0000023A3602046BDE8104001F0E3BB00BFED
:1054F00010B5037982B073B10021062B0446017107
:1055000009D8012202FA03F313F05D0F0ED19A06B7
:1055100009D49B0713D403200D4A0E4901F0DCFB8C
:105520000D4802B010BD0D4802B010BD009103201F
:105530000B4B0C4A074901F0CFFB0748F1E702206B
:10554000094A044901F0C8FB022363710748E8E7F0
:105550007423010838230108F1540008CD540008D1
:10556000542201085823010824230108715500081A
:1055700010B5037982B0044633B9A368D3E90002B9
:105580009047104802B010BD0021062B0171F4D8DD
:10559000012202FA03F313F0770F0AD11B07ECD5AF
:1055A0000220094A094901F097FB04236371084866
:1055B000E8E700910320074B074A044901F08CFB00
:1055C0000348DFE77155000810230108382301085C
:1055D000F1540008602201085823010810B5C3687F
:1055E00004469847044BE060984200D010BD062264
:1055F000024B6271E36010BDCD540008F154000805
:105600002DE9F04105460E4617469846154A40F2E8
:1056100097131021012001F029FB0446A0B10020BE
:10562000DFF850C025603146A060607120716E685F
:10563000C4F80CC0284643463A46B0470546A06029
:1056400050B12046BDE8F081074B084A084901F0F7
:1056500043FB2046BDE8F0812046FFF73BFF2C4688
:10566000EFE700BFB82201086C2201084C210108B5
:1056700038230108F15400082DE9F041036882B095
:105680000446186900F0BCF900B3DFF85880134FE6
:10569000134E03E02579009501F01EFB01232371D1
:1056A0002046FFF79BFF65790023022D63713A4680
:1056B000434631464FF00300ECD10A4B0A4A0849F1
:1056C000284602B0BDE8F04101F006BB054B074A91
:1056D000034902B0BDE8F04101F0FEBA58230108C9
:1056E00038230108D02101089C2201087C220108EE
:1056F0002DE9F041044682B0DFF84C80104F114E86
:1057000003E02579009501F0E7FA0325204625718D
:10571000FFF764FF63790022042B627143463A4627
:1057200031462846EDD1084B084A0649022001F0CF
:10573000D3FA2368186902B0BDE8F04100F08AB9D5
:105740005823010838230108FC210108DC22010844
:10575000D8B130B5056883B0ADB105232B710446CF
:105760002846FFF73BFF6B790022062B6A710DD1AB
:105770000B4B0C4A0C49022001F0AEFA2846FFF709
:10578000A9FE0023236003B030BD70472B7900933E
:10579000064A034B0449032001F09EFAEEE700BFDE
:1057A00028220108F822010838230108582301089B
:1057B0000368186900F002BA8368DA68186810474D
:1057C0002DE9F041214E00EB400433686401603C58
:1057D0002344002282B0054683F84120884601F028
:1057E00017FA284600F0C6FAD0B12946092001F080
:1057F000CBFA31684046214400F0BEFA0746E8B1D2
:1058000033681C44012384F8413029460A2001F002
:10581000BBFA284601F002FA384602B0BDE8F08132
:105820000B4B0C4A0C490095074601F055FA2846E7
:1058300001F0F4F9384602B0BDE8F0810095044B60
:10584000064A054901F048FADFE700BF9C01002045
:1058500094230108102501085C2501086C25010826
:105860002DE9F0411D4E347814B12046BDE8F08199
:1058700000F0B0F980460028F7D001F0B7F900EB4E
:10588000400040014FF4DD721549164F01F0D8F980
:105890003860E0B125460EE03B6803EB421301346B
:1058A0009D6583F8415083F8405083F84C5083F84D
:1058B0004D5083F84E5001F099F9A04204EB440298
:1058C000EAD80123444633702046BDE8F081064BF8
:1058D000064A074901F000FAC7E700BF9801002017
:1058E0000C2401089C010020CC2301084C21010854
:1058F0005C25010810B5064C237803B910BD00F0F3
:1059000095F9044B186801F0D5F90023237010BDF8
:10591000980100209C0100202DE9F84389460746A4
:1059200000F0FEFD344D00EB40042B686401603C48
:10593000804638461E1900F08BF92B68F065234429
:10594000D96D002956D093F841302BB94046FFF766
:1059500037FF0646002846D0384600F0F3FF88BBE4
:105960002B682344D86D00F001FA442201464846D2
:1059700006F002FC2B682344012283F84D203846B0
:1059800000F036FE2B68B0FA80F22344520983F807
:105990004C20384600F0C6FE2B68B0FA80F0234455
:1059A000400983F84E00D86D00F0E2F92B68D0E989
:1059B00001121C4420460023C4E9151200F8503F90
:1059C000BDE8F8832B6823444046DE6D01F020F9E2
:1059D00029683046214400F0D3F90646404601F0DC
:1059E0001DF9002EBCD12B681C44E06D00F0B2F90B
:1059F0003046E5E70846E3E79C01002000F096B951
:105A0000F8B5134E00EB400464013268603C224458
:105A100092F84D2002F0FD02012A02D000273846FC
:105A2000F8BD054601F0F4F831682144C86D00F076
:105A3000D3F9074630B133681C44022384F84D3053
:105A40003846F8BD284601F0E9F83846F8BD00BFF1
:105A50009C01002070B5134E00EB400464013368D4
:105A6000603C234493F84D20022A00D070BD0546C7
:105A7000D86D00F04BFA70B10B4B0C4A0C49042066
:105A800001F02AF9284601F0C9F833681C440323C1
:105A900084F84D3070BD044B064A0549012001F0E1
:105AA0001BF9E9E79C010020E823010860240108B4
:105AB0005C250108242401082DE9F047DFF8D48093
:105AC00000EB40046401D8F80050603C254495F890
:105AD0004E201AB101263046BDE8F08795F84C30CB
